{
  "contractName": "Transaction",
  "abi": [
    {
      "anonymous": false,
      "inputs": [
        {
          "indexed": false,
          "internalType": "address",
          "name": "from",
          "type": "address"
        },
        {
          "indexed": false,
          "internalType": "address",
          "name": "to",
          "type": "address"
        },
        {
          "indexed": false,
          "internalType": "uint256",
          "name": "value",
          "type": "uint256"
        }
      ],
      "name": "WagyuBought",
      "type": "event"
    },
    {
      "inputs": [
        {
          "internalType": "address",
          "name": "",
          "type": "address"
        }
      ],
      "name": "balances",
      "outputs": [
        {
          "internalType": "uint256",
          "name": "",
          "type": "uint256"
        }
      ],
      "stateMutability": "view",
      "type": "function",
      "constant": true
    },
    {
      "inputs": [
        {
          "internalType": "string",
          "name": "",
          "type": "string"
        }
      ],
      "name": "manufacturer",
      "outputs": [
        {
          "internalType": "string",
          "name": "butcherName",
          "type": "string"
        },
        {
          "internalType": "string",
          "name": "butcherLoc",
          "type": "string"
        },
        {
          "internalType": "string",
          "name": "halalslaughterMethod",
          "type": "string"
        },
        {
          "internalType": "string",
          "name": "imgRef",
          "type": "string"
        },
        {
          "internalType": "string",
          "name": "dateDistribute",
          "type": "string"
        },
        {
          "internalType": "bool",
          "name": "availability",
          "type": "bool"
        }
      ],
      "stateMutability": "view",
      "type": "function",
      "constant": true
    },
    {
      "inputs": [
        {
          "internalType": "string",
          "name": "wagyuID",
          "type": "string"
        }
      ],
      "name": "wagyuUnavailability",
      "outputs": [],
      "stateMutability": "nonpayable",
      "type": "function"
    },
    {
      "inputs": [
        {
          "internalType": "string",
          "name": "wagyuID",
          "type": "string"
        },
        {
          "internalType": "address payable",
          "name": "_to",
          "type": "address"
        },
        {
          "internalType": "uint256",
          "name": "_value",
          "type": "uint256"
        }
      ],
      "name": "requestBuy",
      "outputs": [],
      "stateMutability": "payable",
      "type": "function",
      "payable": true
    }
  ],
  "bytecode": "0x608060405234801561001057600080fd5b50610da8806100206000396000f3fe60806040526004361061003f5760003560e01c806327e235e31461004457806354d72f62146100815780638a7df0aa146100aa578063ec1a4499146100c6575b600080fd5b34801561005057600080fd5b5061006b600480360381019061006691906106c4565b610108565b604051610078919061070a565b60405180910390f35b34801561008d57600080fd5b506100a860048036038101906100a3919061086b565b610120565b005b6100c460048036038101906100bf919061091e565b61015d565b005b3480156100d257600080fd5b506100ed60048036038101906100e8919061086b565b61034b565b6040516100ff96959493929190610a27565b60405180910390f35b60006020528060005260406000206000915090505481565b60006001826040516101329190610ae7565b908152602001604051809103902060050160006101000a81548160ff02191690831515021790555050565b8260018160405161016e9190610ae7565b908152602001604051809103902060050160009054906101000a900460ff16156101cd576040517f08c379a00000000000000000000000000000000000000000000000000000000081526004016101c490610b4a565b60405180910390fd5b81341015610210576040517f08c379a000000000000000000000000000000000000000000000000000000000815260040161020790610bb6565b60405180910390fd5b8273ffffffffffffffffffffffffffffffffffffffff166108fc839081150290604051600060405180830381858888f19350505050158015610256573d6000803e3d6000fd5b50816000803373ffffffffffffffffffffffffffffffffffffffff1673ffffffffffffffffffffffffffffffffffffffff16815260200190815260200160002060008282546102a59190610c05565b92505081905550816000808573ffffffffffffffffffffffffffffffffffffffff1673ffffffffffffffffffffffffffffffffffffffff16815260200190815260200160002060008282546102fa9190610c39565b925050819055507f5db1aca79787bd9ebee1049fe0ca1f21ed49448b2b68ee7af279648b10b57fb333848460405161033493929190610cdb565b60405180910390a161034584610120565b50505050565b60018180516020810182018051848252602083016020850120818352809550505050505060009150905080600001805461038490610d41565b80601f01602080910402602001604051908101604052809291908181526020018280546103b090610d41565b80156103fd5780601f106103d2576101008083540402835291602001916103fd565b820191906000526020600020905b8154815290600101906020018083116103e057829003601f168201915b50505050509080600101805461041290610d41565b80601f016020809104026020016040519081016040528092919081815260200182805461043e90610d41565b801561048b5780601f106104605761010080835404028352916020019161048b565b820191906000526020600020905b81548152906001019060200180831161046e57829003601f168201915b5050505050908060020180546104a090610d41565b80601f01602080910402602001604051908101604052809291908181526020018280546104cc90610d41565b80156105195780601f106104ee57610100808354040283529160200191610519565b820191906000526020600020905b8154815290600101906020018083116104fc57829003601f168201915b50505050509080600301805461052e90610d41565b80601f016020809104026020016040519081016040528092919081815260200182805461055a90610d41565b80156105a75780601f1061057c576101008083540402835291602001916105a7565b820191906000526020600020905b81548152906001019060200180831161058a57829003601f168201915b5050505050908060040180546105bc90610d41565b80601f01602080910402602001604051908101604052809291908181526020018280546105e890610d41565b80156106355780601f1061060a57610100808354040283529160200191610635565b820191906000526020600020905b81548152906001019060200180831161061857829003601f168201915b5050505050908060050160009054906101000a900460ff16905086565b6000604051905090565b600080fd5b600080fd5b600073ffffffffffffffffffffffffffffffffffffffff82169050919050565b600061069182610666565b9050919050565b6106a181610686565b81146106ac57600080fd5b50565b6000813590506106be81610698565b92915050565b6000602082840312156106da576106d961065c565b5b60006106e8848285016106af565b91505092915050565b6000819050919050565b610704816106f1565b82525050565b600060208201905061071f60008301846106fb565b92915050565b600080fd5b600080fd5b6000601f19601f8301169050919050565b7f4e487b7100000000000000000000000000000000000000000000000000000000600052604160045260246000fd5b6107788261072f565b810181811067ffffffffffffffff8211171561079757610796610740565b5b80604052505050565b60006107aa610652565b90506107b6828261076f565b919050565b600067ffffffffffffffff8211156107d6576107d5610740565b5b6107df8261072f565b9050602081019050919050565b82818337600083830152505050565b600061080e610809846107bb565b6107a0565b90508281526020810184848401111561082a5761082961072a565b5b6108358482856107ec565b509392505050565b600082601f83011261085257610851610725565b5b81356108628482602086016107fb565b91505092915050565b6000602082840312156108815761088061065c565b5b600082013567ffffffffffffffff81111561089f5761089e610661565b5b6108ab8482850161083d565b91505092915050565b60006108bf82610666565b9050919050565b6108cf816108b4565b81146108da57600080fd5b50565b6000813590506108ec816108c6565b92915050565b6108fb816106f1565b811461090657600080fd5b50565b600081359050610918816108f2565b92915050565b6000806000606084860312156109375761093661065c565b5b600084013567ffffffffffffffff81111561095557610954610661565b5b6109618682870161083d565b9350506020610972868287016108dd565b925050604061098386828701610909565b9150509250925092565b600081519050919050565b600082825260208201905092915050565b60005b838110156109c75780820151818401526020810190506109ac565b60008484015250505050565b60006109de8261098d565b6109e88185610998565b93506109f88185602086016109a9565b610a018161072f565b840191505092915050565b60008115159050919050565b610a2181610a0c565b82525050565b600060c0820190508181036000830152610a4181896109d3565b90508181036020830152610a5581886109d3565b90508181036040830152610a6981876109d3565b90508181036060830152610a7d81866109d3565b90508181036080830152610a9181856109d3565b9050610aa060a0830184610a18565b979650505050505050565b600081905092915050565b6000610ac18261098d565b610acb8185610aab565b9350610adb8185602086016109a9565b80840191505092915050565b6000610af38284610ab6565b915081905092915050565b7f546865206d65617420686173206265656e20626f756768740000000000000000600082015250565b6000610b34601883610998565b9150610b3f82610afe565b602082019050919050565b60006020820190508181036000830152610b6381610b27565b9050919050565b7f496e73756666696369656e742062616c616e6365000000000000000000000000600082015250565b6000610ba0601483610998565b9150610bab82610b6a565b602082019050919050565b60006020820190508181036000830152610bcf81610b93565b9050919050565b7f4e487b7100000000000000000000000000000000000000000000000000000000600052601160045260246000fd5b6000610c10826106f1565b9150610c1b836106f1565b9250828203905081811115610c3357610c32610bd6565b5b92915050565b6000610c44826106f1565b9150610c4f836106f1565b9250828201905080821115610c6757610c66610bd6565b5b92915050565b610c7681610686565b82525050565b6000819050919050565b6000610ca1610c9c610c9784610666565b610c7c565b610666565b9050919050565b6000610cb382610c86565b9050919050565b6000610cc582610ca8565b9050919050565b610cd581610cba565b82525050565b6000606082019050610cf06000830186610c6d565b610cfd6020830185610ccc565b610d0a60408301846106fb565b949350505050565b7f4e487b7100000000000000000000000000000000000000000000000000000000600052602260045260246000fd5b60006002820490506001821680610d5957607f821691505b602082108103610d6c57610d6b610d12565b5b5091905056fea2646970667358221220dbe8b317d9502ed664d13afa425b372d7fe226c582947aa934c5db1563b27b1d64736f6c63430008110033",
  "immutableReferences": {},
  "source": "// SPDX-License-Identifier: MIT\npragma solidity >=0.4.22 <0.9.0;\n\n//data structure for Wagyu Cow Care Information\nstruct Wagyu {\n  uint256 age;\n  string breed;\n  string grade;\n  string farmerName;\n  string farmLoc;\n  string halalCareMethod;\n  }\n\n//data structure for Wagyu Meat Processing Information\nstruct Manufacturer {\n  string butcherName;\n  string butcherLoc;\n  string halalslaughterMethod;\n  string imgRef;\n  string dateDistribute;\n  bool availability;\n}\n\n//Contract to create, update and store the information of wagyu into struct datastructure\ncontract WagyuInfo {\n\n  //mapping the struct datastructure to one string reference\n  mapping(string => Wagyu) public wagyu;\n  mapping(string => Manufacturer) public manufacturer;\n\n  //Check either the meat has reach the manufacturing process or not\n  modifier isDistribute(string memory wagyuID) {\n    require (!manufacturer[wagyuID].availability, \"The meat is not manufactured yet\");\n    _;\n  }\n\n  //this function is to add information Wagyu Cow Care into struct Wagyu\n  function addWagyu (string memory wagyuID, uint256 age, string memory breed, string memory grade, string memory farmerName,  string memory farmLoc, \n  string memory halalCareMethod) public {\n    Wagyu memory newWagyu;\n    newWagyu.age = age;\n    newWagyu.breed = breed;\n    newWagyu.grade = grade;\n    newWagyu.farmerName = farmerName;\n    newWagyu.farmLoc = farmLoc;\n    newWagyu.halalCareMethod = halalCareMethod;\n    wagyu[wagyuID] = newWagyu;\n  }\n\n  //Declare a function to change the availability of wagyu\n  function wagyuAvailability (string memory wagyuID) public isDistribute(wagyuID){\n    manufacturer[wagyuID].availability = true;\n  }\n\n  //Declare a function to add information of Wagyu Meat Processing into struct Manufacturer\n  function addManufacturer (string memory wagyuID, string memory butcherName, string memory halalslaughterMethod, string memory imgRef, string memory dateDistribute) public {\n    Manufacturer memory newManufacturer;\n    wagyuAvailability(wagyuID);\n    newManufacturer.butcherName = butcherName;\n    newManufacturer.halalslaughterMethod = halalslaughterMethod;\n    newManufacturer.dateDistribute = dateDistribute;\n    newManufacturer.imgRef = imgRef;\n    manufacturer[wagyuID] = newManufacturer;\n  } \n\n  //Function to retrieve information of Wagyu Cow Care phases\n  function getWagyuInfo(string memory wagyuID) public view returns(Wagyu memory){\n    return wagyu[wagyuID];\n  }\n\n  //Function to retrieve information of Wagyu Meat Processing phases\n  function getDetailedWagyuInfo(string memory wagyuID) public view returns(Manufacturer memory){\n    return manufacturer[wagyuID];\n  }\n  \n  //Declare initial value of WagyuInfo block\n  constructor(){\n    addWagyu(\"CowA101\", 12, \"A1\", \"Japanese Black\", \"Ahmad\",\"Japan\",\"halal\");\n    addManufacturer(\"CowA101\", \"Rahim\", \"Haram\",\"A1refpic\",\"12 Dec 2020\");\n  }\n}\n\ncontract Transaction{\n\n  // Mapping of addresses to balance\n  mapping(address => uint256) public balances;\n  mapping(string => Manufacturer) public manufacturer;\n\n  // Check either the Wagyu meat has been buy or not\n  modifier isBought(string memory wagyuID) {\n    require (!manufacturer[wagyuID].availability, \"The meat has been bought\");\n    _;\n  }\n\n  // Event to be emitted when a transaction is made\n  event WagyuBought(address from, address to, uint256 value);\n\n  //Function to change the availability of Wagyu meat\n  function wagyuUnavailability (string memory wagyuID) public{\n    manufacturer[wagyuID].availability = false;\n  }\n\n  // Function to make a transaction from one address to another\n  function requestBuy(string memory wagyuID, address payable _to, uint256 _value) public payable  isBought(wagyuID){\n\n    // Check that the sender has enough balance to make the transaction\n    require(msg.value >= _value, \"Insufficient balance\");\n    \n    // Transfer the Ether from the sender to the recipient\n    _to.transfer(_value);\n\n    // Update the balances of the sender and recipient\n    balances[msg.sender] -= _value;\n    balances[_to] += _value;\n\n    // Emit a WagyuBought event\n    emit WagyuBought(msg.sender, _to, _value);\n    wagyuUnavailability(wagyuID);\n  }\n}",
  "sourcePath": "C:\\Users\\LeonyX\\Documents\\Blockchain\\.vscode\\GroupProject\\contracts\\Wagyu.sol",
  "compiler": {
    "name": "solc",
    "version": "0.8.17+commit.8df45f5f.Emscripten.clang"
  },
  "schemaVersion": "3.4.11",
  "updatedAt": "2023-01-03T20:05:18.439Z",
  "networkType": "ethereum",
  "devdoc": {
    "kind": "dev",
    "methods": {},
    "version": 1
  },
  "userdoc": {
    "kind": "user",
    "methods": {},
    "version": 1
  }
}