{
  "contractName": "WagyuInfo",
  "abi": [
    {
      "inputs": [],
      "stateMutability": "nonpayable",
      "type": "constructor"
    },
    {
      "inputs": [
        {
          "internalType": "string",
          "name": "",
          "type": "string"
        }
      ],
      "name": "manufacturer",
      "outputs": [
        {
          "internalType": "string",
          "name": "butcherName",
          "type": "string"
        },
        {
          "internalType": "string",
          "name": "butcherLoc",
          "type": "string"
        },
        {
          "internalType": "string",
          "name": "halalslaughterMethod",
          "type": "string"
        },
        {
          "internalType": "string",
          "name": "imgRef",
          "type": "string"
        },
        {
          "internalType": "string",
          "name": "dateDistribute",
          "type": "string"
        },
        {
          "internalType": "bool",
          "name": "availability",
          "type": "bool"
        }
      ],
      "stateMutability": "view",
      "type": "function",
      "constant": true
    },
    {
      "inputs": [
        {
          "internalType": "string",
          "name": "",
          "type": "string"
        }
      ],
      "name": "wagyu",
      "outputs": [
        {
          "internalType": "uint256",
          "name": "age",
          "type": "uint256"
        },
        {
          "internalType": "string",
          "name": "breed",
          "type": "string"
        },
        {
          "internalType": "string",
          "name": "grade",
          "type": "string"
        },
        {
          "internalType": "string",
          "name": "farmerName",
          "type": "string"
        },
        {
          "internalType": "string",
          "name": "farmLoc",
          "type": "string"
        },
        {
          "internalType": "string",
          "name": "halalCareMethod",
          "type": "string"
        }
      ],
      "stateMutability": "view",
      "type": "function",
      "constant": true
    },
    {
      "inputs": [
        {
          "internalType": "string",
          "name": "wagyuID",
          "type": "string"
        },
        {
          "internalType": "uint256",
          "name": "age",
          "type": "uint256"
        },
        {
          "internalType": "string",
          "name": "breed",
          "type": "string"
        },
        {
          "internalType": "string",
          "name": "grade",
          "type": "string"
        },
        {
          "internalType": "string",
          "name": "farmerName",
          "type": "string"
        },
        {
          "internalType": "string",
          "name": "farmLoc",
          "type": "string"
        },
        {
          "internalType": "string",
          "name": "halalCareMethod",
          "type": "string"
        }
      ],
      "name": "addWagyu",
      "outputs": [],
      "stateMutability": "nonpayable",
      "type": "function"
    },
    {
      "inputs": [
        {
          "internalType": "string",
          "name": "wagyuID",
          "type": "string"
        }
      ],
      "name": "wagyuAvailability",
      "outputs": [],
      "stateMutability": "nonpayable",
      "type": "function"
    },
    {
      "inputs": [
        {
          "internalType": "string",
          "name": "wagyuID",
          "type": "string"
        },
        {
          "internalType": "string",
          "name": "butcherName",
          "type": "string"
        },
        {
          "internalType": "string",
          "name": "halalslaughterMethod",
          "type": "string"
        },
        {
          "internalType": "string",
          "name": "imgRef",
          "type": "string"
        },
        {
          "internalType": "string",
          "name": "dateDistribute",
          "type": "string"
        }
      ],
      "name": "addManufacturer",
      "outputs": [],
      "stateMutability": "nonpayable",
      "type": "function"
    },
    {
      "inputs": [
        {
          "internalType": "string",
          "name": "wagyuID",
          "type": "string"
        }
      ],
      "name": "getWagyuInfo",
      "outputs": [
        {
          "components": [
            {
              "internalType": "uint256",
              "name": "age",
              "type": "uint256"
            },
            {
              "internalType": "string",
              "name": "breed",
              "type": "string"
            },
            {
              "internalType": "string",
              "name": "grade",
              "type": "string"
            },
            {
              "internalType": "string",
              "name": "farmerName",
              "type": "string"
            },
            {
              "internalType": "string",
              "name": "farmLoc",
              "type": "string"
            },
            {
              "internalType": "string",
              "name": "halalCareMethod",
              "type": "string"
            }
          ],
          "internalType": "struct Wagyu",
          "name": "",
          "type": "tuple"
        }
      ],
      "stateMutability": "view",
      "type": "function",
      "constant": true
    },
    {
      "inputs": [
        {
          "internalType": "string",
          "name": "wagyuID",
          "type": "string"
        }
      ],
      "name": "getDetailedWagyuInfo",
      "outputs": [
        {
          "components": [
            {
              "internalType": "string",
              "name": "butcherName",
              "type": "string"
            },
            {
              "internalType": "string",
              "name": "butcherLoc",
              "type": "string"
            },
            {
              "internalType": "string",
              "name": "halalslaughterMethod",
              "type": "string"
            },
            {
              "internalType": "string",
              "name": "imgRef",
              "type": "string"
            },
            {
              "internalType": "string",
              "name": "dateDistribute",
              "type": "string"
            },
            {
              "internalType": "bool",
              "name": "availability",
              "type": "bool"
            }
          ],
          "internalType": "struct Manufacturer",
          "name": "",
          "type": "tuple"
        }
      ],
      "stateMutability": "view",
      "type": "function",
      "constant": true
    }
  ],
  "bytecode": "0x60806040523480156200001157600080fd5b50620001686040518060400160405280600781526020017f436f774131303100000000000000000000000000000000000000000000000000815250600c6040518060400160405280600281526020017f41310000000000000000000000000000000000000000000000000000000000008152506040518060400160405280600e81526020017f4a6170616e65736520426c61636b0000000000000000000000000000000000008152506040518060400160405280600581526020017f41686d61640000000000000000000000000000000000000000000000000000008152506040518060400160405280600581526020017f4a6170616e0000000000000000000000000000000000000000000000000000008152506040518060400160405280600581526020017f68616c616c0000000000000000000000000000000000000000000000000000008152506200028c60201b60201c565b620002866040518060400160405280600781526020017f436f7741313031000000000000000000000000000000000000000000000000008152506040518060400160405280600581526020017f526168696d0000000000000000000000000000000000000000000000000000008152506040518060400160405280600581526020017f486172616d0000000000000000000000000000000000000000000000000000008152506040518060400160405280600881526020017f41317265667069630000000000000000000000000000000000000000000000008152506040518060400160405280600b81526020017f31322044656320323032300000000000000000000000000000000000000000008152506200037d60201b60201c565b62000a0d565b6200029662000534565b86816000018181525050858160200181905250848160400181905250838160600181905250828160800181905250818160a0018190525080600089604051620002e091906200061b565b90815260200160405180910390206000820151816000015560208201518160010190816200030f9190620008a3565b506040820151816002019081620003279190620008a3565b5060608201518160030190816200033f9190620008a3565b506080820151816004019081620003579190620008a3565b5060a08201518160050190816200036f9190620008a3565b509050505050505050505050565b620003876200056a565b62000398866200048060201b60201c565b84816000018190525083816040018190525081816080018190525082816060018190525080600187604051620003cf91906200061b565b90815260200160405180910390206000820151816000019081620003f49190620008a3565b5060208201518160010190816200040c9190620008a3565b506040820151816002019081620004249190620008a3565b5060608201518160030190816200043c9190620008a3565b506080820151816004019081620004549190620008a3565b5060a08201518160050160006101000a81548160ff021916908315150217905550905050505050505050565b806001816040516200049391906200061b565b908152602001604051809103902060050160009054906101000a900460ff1615620004f5576040517f08c379a0000000000000000000000000000000000000000000000000000000008152600401620004ec90620009eb565b60405180910390fd5b600180836040516200050891906200061b565b908152602001604051809103902060050160006101000a81548160ff0219169083151502179055505050565b6040518060c001604052806000815260200160608152602001606081526020016060815260200160608152602001606081525090565b6040518060c0016040528060608152602001606081526020016060815260200160608152602001606081526020016000151581525090565b600081519050919050565b600081905092915050565b60005b83811015620005d8578082015181840152602081019050620005bb565b60008484015250505050565b6000620005f182620005a2565b620005fd8185620005ad565b93506200060f818560208601620005b8565b80840191505092915050565b6000620006298284620005e4565b915081905092915050565b7f4e487b7100000000000000000000000000000000000000000000000000000000600052604160045260246000fd5b7f4e487b7100000000000000000000000000000000000000000000000000000000600052602260045260246000fd5b60006002820490506001821680620006ab57607f821691505b602082108103620006c157620006c062000663565b5b50919050565b60008190508160005260206000209050919050565b60006020601f8301049050919050565b600082821b905092915050565b6000600883026200072b7fffffffffffffffffffffffffffffffffffffffffffffffffffffffffffffffff82620006ec565b620007378683620006ec565b95508019841693508086168417925050509392505050565b6000819050919050565b6000819050919050565b6000620007846200077e62000778846200074f565b62000759565b6200074f565b9050919050565b6000819050919050565b620007a08362000763565b620007b8620007af826200078b565b848454620006f9565b825550505050565b600090565b620007cf620007c0565b620007dc81848462000795565b505050565b5b818110156200080457620007f8600082620007c5565b600181019050620007e2565b5050565b601f82111562000853576200081d81620006c7565b6200082884620006dc565b8101602085101562000838578190505b620008506200084785620006dc565b830182620007e1565b50505b505050565b600082821c905092915050565b6000620008786000198460080262000858565b1980831691505092915050565b600062000893838362000865565b9150826002028217905092915050565b620008ae82620005a2565b67ffffffffffffffff811115620008ca57620008c962000634565b5b620008d6825462000692565b620008e382828562000808565b600060209050601f8311600181146200091b576000841562000906578287015190505b62000912858262000885565b86555062000982565b601f1984166200092b86620006c7565b60005b8281101562000955578489015182556001820191506020850194506020810190506200092e565b8683101562000975578489015162000971601f89168262000865565b8355505b6001600288020188555050505b505050505050565b600082825260208201905092915050565b7f546865206d656174206973206e6f74206d616e75666163747572656420796574600082015250565b6000620009d36020836200098a565b9150620009e0826200099b565b602082019050919050565b6000602082019050818103600083015262000a0681620009c4565b9050919050565b611c798062000a1d6000396000f3fe608060405234801561001057600080fd5b506004361061007d5760003560e01c806383256c9c1161005b57806383256c9c146100fe578063ec1a44991461011a578063f490a5ad1461014f578063f94873ab1461016b5761007d565b8063386f227a146100825780633e21b035146100b257806349f6e1ab146100e2575b600080fd5b61009c6004803603810190610097919061122f565b6101a0565b6040516100a991906113b7565b60405180910390f35b6100cc60048036038101906100c7919061122f565b6104cd565b6040516100d99190611497565b60405180910390f35b6100fc60048036038101906100f791906114e5565b6107e9565b005b6101186004803603810190610113919061162f565b6108cc565b005b610134600480360381019061012f919061122f565b6109b9565b6040516101469695949392919061178f565b60405180910390f35b6101696004803603810190610164919061122f565b610cc0565b005b6101856004803603810190610180919061122f565b610d6d565b60405161019796959493929190611822565b60405180910390f35b6101a8611067565b6001826040516101b891906118e2565b90815260200160405180910390206040518060c00160405290816000820180546101e190611928565b80601f016020809104026020016040519081016040528092919081815260200182805461020d90611928565b801561025a5780601f1061022f5761010080835404028352916020019161025a565b820191906000526020600020905b81548152906001019060200180831161023d57829003601f168201915b5050505050815260200160018201805461027390611928565b80601f016020809104026020016040519081016040528092919081815260200182805461029f90611928565b80156102ec5780601f106102c1576101008083540402835291602001916102ec565b820191906000526020600020905b8154815290600101906020018083116102cf57829003601f168201915b5050505050815260200160028201805461030590611928565b80601f016020809104026020016040519081016040528092919081815260200182805461033190611928565b801561037e5780601f106103535761010080835404028352916020019161037e565b820191906000526020600020905b81548152906001019060200180831161036157829003601f168201915b5050505050815260200160038201805461039790611928565b80601f01602080910402602001604051908101604052809291908181526020018280546103c390611928565b80156104105780601f106103e557610100808354040283529160200191610410565b820191906000526020600020905b8154815290600101906020018083116103f357829003601f168201915b5050505050815260200160048201805461042990611928565b80601f016020809104026020016040519081016040528092919081815260200182805461045590611928565b80156104a25780601f10610477576101008083540402835291602001916104a2565b820191906000526020600020905b81548152906001019060200180831161048557829003601f168201915b505050505081526020016005820160009054906101000a900460ff1615151515815250509050919050565b6104d561109f565b6000826040516104e591906118e2565b90815260200160405180910390206040518060c00160405290816000820154815260200160018201805461051890611928565b80601f016020809104026020016040519081016040528092919081815260200182805461054490611928565b80156105915780601f1061056657610100808354040283529160200191610591565b820191906000526020600020905b81548152906001019060200180831161057457829003601f168201915b505050505081526020016002820180546105aa90611928565b80601f01602080910402602001604051908101604052809291908181526020018280546105d690611928565b80156106235780601f106105f857610100808354040283529160200191610623565b820191906000526020600020905b81548152906001019060200180831161060657829003601f168201915b5050505050815260200160038201805461063c90611928565b80601f016020809104026020016040519081016040528092919081815260200182805461066890611928565b80156106b55780601f1061068a576101008083540402835291602001916106b5565b820191906000526020600020905b81548152906001019060200180831161069857829003601f168201915b505050505081526020016004820180546106ce90611928565b80601f01602080910402602001604051908101604052809291908181526020018280546106fa90611928565b80156107475780601f1061071c57610100808354040283529160200191610747565b820191906000526020600020905b81548152906001019060200180831161072a57829003601f168201915b5050505050815260200160058201805461076090611928565b80601f016020809104026020016040519081016040528092919081815260200182805461078c90611928565b80156107d95780601f106107ae576101008083540402835291602001916107d9565b820191906000526020600020905b8154815290600101906020018083116107bc57829003601f168201915b5050505050815250509050919050565b6107f161109f565b86816000018181525050858160200181905250848160400181905250838160600181905250828160800181905250818160a001819052508060008960405161083991906118e2565b90815260200160405180910390206000820151816000015560208201518160010190816108669190611b05565b50604082015181600201908161087c9190611b05565b5060608201518160030190816108929190611b05565b5060808201518160040190816108a89190611b05565b5060a08201518160050190816108be9190611b05565b509050505050505050505050565b6108d4611067565b6108dd86610cc0565b8481600001819052508381604001819052508181608001819052508281606001819052508060018760405161091291906118e2565b908152602001604051809103902060008201518160000190816109359190611b05565b50602082015181600101908161094b9190611b05565b5060408201518160020190816109619190611b05565b5060608201518160030190816109779190611b05565b50608082015181600401908161098d9190611b05565b5060a08201518160050160006101000a81548160ff021916908315150217905550905050505050505050565b6001818051602081018201805184825260208301602085012081835280955050505050506000915090508060000180546109f290611928565b80601f0160208091040260200160405190810160405280929190818152602001828054610a1e90611928565b8015610a6b5780601f10610a4057610100808354040283529160200191610a6b565b820191906000526020600020905b815481529060010190602001808311610a4e57829003601f168201915b505050505090806001018054610a8090611928565b80601f0160208091040260200160405190810160405280929190818152602001828054610aac90611928565b8015610af95780601f10610ace57610100808354040283529160200191610af9565b820191906000526020600020905b815481529060010190602001808311610adc57829003601f168201915b505050505090806002018054610b0e90611928565b80601f0160208091040260200160405190810160405280929190818152602001828054610b3a90611928565b8015610b875780601f10610b5c57610100808354040283529160200191610b87565b820191906000526020600020905b815481529060010190602001808311610b6a57829003601f168201915b505050505090806003018054610b9c90611928565b80601f0160208091040260200160405190810160405280929190818152602001828054610bc890611928565b8015610c155780601f10610bea57610100808354040283529160200191610c15565b820191906000526020600020905b815481529060010190602001808311610bf857829003601f168201915b505050505090806004018054610c2a90611928565b80601f0160208091040260200160405190810160405280929190818152602001828054610c5690611928565b8015610ca35780601f10610c7857610100808354040283529160200191610ca3565b820191906000526020600020905b815481529060010190602001808311610c8657829003601f168201915b5050505050908060050160009054906101000a900460ff16905086565b80600181604051610cd191906118e2565b908152602001604051809103902060050160009054906101000a900460ff1615610d30576040517f08c379a0000000000000000000000000000000000000000000000000000000008152600401610d2790611c23565b60405180910390fd5b60018083604051610d4191906118e2565b908152602001604051809103902060050160006101000a81548160ff0219169083151502179055505050565b600081805160208101820180518482526020830160208501208183528095505050505050600091509050806000015490806001018054610dac90611928565b80601f0160208091040260200160405190810160405280929190818152602001828054610dd890611928565b8015610e255780601f10610dfa57610100808354040283529160200191610e25565b820191906000526020600020905b815481529060010190602001808311610e0857829003601f168201915b505050505090806002018054610e3a90611928565b80601f0160208091040260200160405190810160405280929190818152602001828054610e6690611928565b8015610eb35780601f10610e8857610100808354040283529160200191610eb3565b820191906000526020600020905b815481529060010190602001808311610e9657829003601f168201915b505050505090806003018054610ec890611928565b80601f0160208091040260200160405190810160405280929190818152602001828054610ef490611928565b8015610f415780601f10610f1657610100808354040283529160200191610f41565b820191906000526020600020905b815481529060010190602001808311610f2457829003601f168201915b505050505090806004018054610f5690611928565b80601f0160208091040260200160405190810160405280929190818152602001828054610f8290611928565b8015610fcf5780601f10610fa457610100808354040283529160200191610fcf565b820191906000526020600020905b815481529060010190602001808311610fb257829003601f168201915b505050505090806005018054610fe490611928565b80601f016020809104026020016040519081016040528092919081815260200182805461101090611928565b801561105d5780601f106110325761010080835404028352916020019161105d565b820191906000526020600020905b81548152906001019060200180831161104057829003601f168201915b5050505050905086565b6040518060c0016040528060608152602001606081526020016060815260200160608152602001606081526020016000151581525090565b6040518060c001604052806000815260200160608152602001606081526020016060815260200160608152602001606081525090565b6000604051905090565b600080fd5b600080fd5b600080fd5b600080fd5b6000601f19601f8301169050919050565b7f4e487b7100000000000000000000000000000000000000000000000000000000600052604160045260246000fd5b61113c826110f3565b810181811067ffffffffffffffff8211171561115b5761115a611104565b5b80604052505050565b600061116e6110d5565b905061117a8282611133565b919050565b600067ffffffffffffffff82111561119a57611199611104565b5b6111a3826110f3565b9050602081019050919050565b82818337600083830152505050565b60006111d26111cd8461117f565b611164565b9050828152602081018484840111156111ee576111ed6110ee565b5b6111f98482856111b0565b509392505050565b600082601f830112611216576112156110e9565b5b81356112268482602086016111bf565b91505092915050565b600060208284031215611245576112446110df565b5b600082013567ffffffffffffffff811115611263576112626110e4565b5b61126f84828501611201565b91505092915050565b600081519050919050565b600082825260208201905092915050565b60005b838110156112b2578082015181840152602081019050611297565b60008484015250505050565b60006112c982611278565b6112d38185611283565b93506112e3818560208601611294565b6112ec816110f3565b840191505092915050565b60008115159050919050565b61130c816112f7565b82525050565b600060c083016000830151848203600086015261132f82826112be565b9150506020830151848203602086015261134982826112be565b9150506040830151848203604086015261136382826112be565b9150506060830151848203606086015261137d82826112be565b9150506080830151848203608086015261139782826112be565b91505060a08301516113ac60a0860182611303565b508091505092915050565b600060208201905081810360008301526113d18184611312565b905092915050565b6000819050919050565b6113ec816113d9565b82525050565b600060c08301600083015161140a60008601826113e3565b506020830151848203602086015261142282826112be565b9150506040830151848203604086015261143c82826112be565b9150506060830151848203606086015261145682826112be565b9150506080830151848203608086015261147082826112be565b91505060a083015184820360a086015261148a82826112be565b9150508091505092915050565b600060208201905081810360008301526114b181846113f2565b905092915050565b6114c2816113d9565b81146114cd57600080fd5b50565b6000813590506114df816114b9565b92915050565b600080600080600080600060e0888a031215611504576115036110df565b5b600088013567ffffffffffffffff811115611522576115216110e4565b5b61152e8a828b01611201565b975050602061153f8a828b016114d0565b965050604088013567ffffffffffffffff8111156115605761155f6110e4565b5b61156c8a828b01611201565b955050606088013567ffffffffffffffff81111561158d5761158c6110e4565b5b6115998a828b01611201565b945050608088013567ffffffffffffffff8111156115ba576115b96110e4565b5b6115c68a828b01611201565b93505060a088013567ffffffffffffffff8111156115e7576115e66110e4565b5b6115f38a828b01611201565b92505060c088013567ffffffffffffffff811115611614576116136110e4565b5b6116208a828b01611201565b91505092959891949750929550565b600080600080600060a0868803121561164b5761164a6110df565b5b600086013567ffffffffffffffff811115611669576116686110e4565b5b61167588828901611201565b955050602086013567ffffffffffffffff811115611696576116956110e4565b5b6116a288828901611201565b945050604086013567ffffffffffffffff8111156116c3576116c26110e4565b5b6116cf88828901611201565b935050606086013567ffffffffffffffff8111156116f0576116ef6110e4565b5b6116fc88828901611201565b925050608086013567ffffffffffffffff81111561171d5761171c6110e4565b5b61172988828901611201565b9150509295509295909350565b600082825260208201905092915050565b600061175282611278565b61175c8185611736565b935061176c818560208601611294565b611775816110f3565b840191505092915050565b611789816112f7565b82525050565b600060c08201905081810360008301526117a98189611747565b905081810360208301526117bd8188611747565b905081810360408301526117d18187611747565b905081810360608301526117e58186611747565b905081810360808301526117f98185611747565b905061180860a0830184611780565b979650505050505050565b61181c816113d9565b82525050565b600060c0820190506118376000830189611813565b81810360208301526118498188611747565b9050818103604083015261185d8187611747565b905081810360608301526118718186611747565b905081810360808301526118858185611747565b905081810360a08301526118998184611747565b9050979650505050505050565b600081905092915050565b60006118bc82611278565b6118c681856118a6565b93506118d6818560208601611294565b80840191505092915050565b60006118ee82846118b1565b915081905092915050565b7f4e487b7100000000000000000000000000000000000000000000000000000000600052602260045260246000fd5b6000600282049050600182168061194057607f821691505b602082108103611953576119526118f9565b5b50919050565b60008190508160005260206000209050919050565b60006020601f8301049050919050565b600082821b905092915050565b6000600883026119bb7fffffffffffffffffffffffffffffffffffffffffffffffffffffffffffffffff8261197e565b6119c5868361197e565b95508019841693508086168417925050509392505050565b6000819050919050565b6000611a026119fd6119f8846113d9565b6119dd565b6113d9565b9050919050565b6000819050919050565b611a1c836119e7565b611a30611a2882611a09565b84845461198b565b825550505050565b600090565b611a45611a38565b611a50818484611a13565b505050565b5b81811015611a7457611a69600082611a3d565b600181019050611a56565b5050565b601f821115611ab957611a8a81611959565b611a938461196e565b81016020851015611aa2578190505b611ab6611aae8561196e565b830182611a55565b50505b505050565b600082821c905092915050565b6000611adc60001984600802611abe565b1980831691505092915050565b6000611af58383611acb565b9150826002028217905092915050565b611b0e82611278565b67ffffffffffffffff811115611b2757611b26611104565b5b611b318254611928565b611b3c828285611a78565b600060209050601f831160018114611b6f5760008415611b5d578287015190505b611b678582611ae9565b865550611bcf565b601f198416611b7d86611959565b60005b82811015611ba557848901518255600182019150602085019450602081019050611b80565b86831015611bc25784890151611bbe601f891682611acb565b8355505b6001600288020188555050505b505050505050565b7f546865206d656174206973206e6f74206d616e75666163747572656420796574600082015250565b6000611c0d602083611736565b9150611c1882611bd7565b602082019050919050565b60006020820190508181036000830152611c3c81611c00565b905091905056fea26469706673582212208acbd2e852c63d065bb107275c248050c84579002745a32591481de20e19f1e364736f6c63430008110033",
  "immutableReferences": {},
  "source": "// SPDX-License-Identifier: MIT\npragma solidity >=0.4.22 <0.9.0;\n\n//data structure for Wagyu Cow Care Information\nstruct Wagyu {\n  uint256 age;\n  string breed;\n  string grade;\n  string farmerName;\n  string farmLoc;\n  string halalCareMethod;\n  }\n\n//data structure for Wagyu Meat Processing Information\nstruct Manufacturer {\n  string butcherName;\n  string butcherLoc;\n  string halalslaughterMethod;\n  string imgRef;\n  string dateDistribute;\n  bool availability;\n}\n\n//Contract to create, update and store the information of wagyu into struct datastructure\ncontract WagyuInfo {\n\n  //mapping the struct datastructure to one string reference\n  mapping(string => Wagyu) public wagyu;\n  mapping(string => Manufacturer) public manufacturer;\n\n  //Check either the meat has reach the manufacturing process or not\n  modifier isDistribute(string memory wagyuID) {\n    require (!manufacturer[wagyuID].availability, \"The meat is not manufactured yet\");\n    _;\n  }\n\n  //this function is to add information Wagyu Cow Care into struct Wagyu\n  function addWagyu (string memory wagyuID, uint256 age, string memory breed, string memory grade, string memory farmerName,  string memory farmLoc, \n  string memory halalCareMethod) public {\n    Wagyu memory newWagyu;\n    newWagyu.age = age;\n    newWagyu.breed = breed;\n    newWagyu.grade = grade;\n    newWagyu.farmerName = farmerName;\n    newWagyu.farmLoc = farmLoc;\n    newWagyu.halalCareMethod = halalCareMethod;\n    wagyu[wagyuID] = newWagyu;\n  }\n\n  //Declare a function to change the availability of wagyu\n  function wagyuAvailability (string memory wagyuID) public isDistribute(wagyuID){\n    manufacturer[wagyuID].availability = true;\n  }\n\n  //Declare a function to add information of Wagyu Meat Processing into struct Manufacturer\n  function addManufacturer (string memory wagyuID, string memory butcherName, string memory halalslaughterMethod, string memory imgRef, string memory dateDistribute) public {\n    Manufacturer memory newManufacturer;\n    wagyuAvailability(wagyuID);\n    newManufacturer.butcherName = butcherName;\n    newManufacturer.halalslaughterMethod = halalslaughterMethod;\n    newManufacturer.dateDistribute = dateDistribute;\n    newManufacturer.imgRef = imgRef;\n    manufacturer[wagyuID] = newManufacturer;\n  } \n\n  //Function to retrieve information of Wagyu Cow Care phases\n  function getWagyuInfo(string memory wagyuID) public view returns(Wagyu memory){\n    return wagyu[wagyuID];\n  }\n\n  //Function to retrieve information of Wagyu Meat Processing phases\n  function getDetailedWagyuInfo(string memory wagyuID) public view returns(Manufacturer memory){\n    return manufacturer[wagyuID];\n  }\n  \n  //Declare initial value of WagyuInfo block\n  constructor(){\n    addWagyu(\"CowA101\", 12, \"A1\", \"Japanese Black\", \"Ahmad\",\"Japan\",\"halal\");\n    addManufacturer(\"CowA101\", \"Rahim\", \"Haram\",\"A1refpic\",\"12 Dec 2020\");\n  }\n}\n\ncontract Transaction{\n\n  // Mapping of addresses to balance\n  mapping(address => uint256) public balances;\n  mapping(string => Manufacturer) public manufacturer;\n\n  // Check either the Wagyu meat has been buy or not\n  modifier isBought(string memory wagyuID) {\n    require (!manufacturer[wagyuID].availability, \"The meat has been bought\");\n    _;\n  }\n\n  // Event to be emitted when a transaction is made\n  event WagyuBought(address from, address to, uint256 value);\n\n  //Function to change the availability of Wagyu meat\n  function wagyuUnavailability (string memory wagyuID) public{\n    manufacturer[wagyuID].availability = false;\n  }\n\n  // Function to make a transaction from one address to another\n  function requestBuy(string memory wagyuID, address payable _to, uint256 _value) public payable  isBought(wagyuID){\n\n    // Check that the sender has enough balance to make the transaction\n    require(msg.value >= _value, \"Insufficient balance\");\n    \n    // Transfer the Ether from the sender to the recipient\n    _to.transfer(_value);\n\n    // Update the balances of the sender and recipient\n    balances[msg.sender] -= _value;\n    balances[_to] += _value;\n\n    // Emit a WagyuBought event\n    emit WagyuBought(msg.sender, _to, _value);\n    wagyuUnavailability(wagyuID);\n  }\n}",
  "sourcePath": "C:\\Users\\LeonyX\\Documents\\Blockchain\\.vscode\\GroupProject\\contracts\\Wagyu.sol",
  "compiler": {
    "name": "solc",
    "version": "0.8.17+commit.8df45f5f.Emscripten.clang"
  },
  "schemaVersion": "3.4.11",
  "updatedAt": "2023-01-03T20:05:18.425Z",
  "networkType": "ethereum",
  "devdoc": {
    "kind": "dev",
    "methods": {},
    "version": 1
  },
  "userdoc": {
    "kind": "user",
    "methods": {},
    "version": 1
  }
}