{
  "contractName": "WagyuTransaction",
  "abi": [
    {
      "anonymous": false,
      "inputs": [
        {
          "indexed": false,
          "internalType": "address",
          "name": "from",
          "type": "address"
        },
        {
          "indexed": false,
          "internalType": "address",
          "name": "to",
          "type": "address"
        },
        {
          "indexed": false,
          "internalType": "uint256",
          "name": "value",
          "type": "uint256"
        }
      ],
      "name": "WagyuBought",
      "type": "event"
    },
    {
      "inputs": [
        {
          "internalType": "address",
          "name": "",
          "type": "address"
        }
      ],
      "name": "balances",
      "outputs": [
        {
          "internalType": "uint256",
          "name": "",
          "type": "uint256"
        }
      ],
      "stateMutability": "view",
      "type": "function"
    },
    {
      "inputs": [
        {
          "internalType": "string",
          "name": "",
          "type": "string"
        }
      ],
      "name": "manufacturer",
      "outputs": [
        {
          "internalType": "string",
          "name": "butcherName",
          "type": "string"
        },
        {
          "internalType": "string",
          "name": "butcherLoc",
          "type": "string"
        },
        {
          "internalType": "string",
          "name": "halalslaughterMethod",
          "type": "string"
        },
        {
          "internalType": "string",
          "name": "imgRef",
          "type": "string"
        },
        {
          "internalType": "string",
          "name": "dateDistribute",
          "type": "string"
        },
        {
          "internalType": "bool",
          "name": "availability",
          "type": "bool"
        }
      ],
      "stateMutability": "view",
      "type": "function"
    },
    {
      "inputs": [],
      "name": "owner",
      "outputs": [
        {
          "internalType": "address",
          "name": "",
          "type": "address"
        }
      ],
      "stateMutability": "view",
      "type": "function"
    },
    {
      "inputs": [
        {
          "internalType": "string",
          "name": "wagyuID",
          "type": "string"
        }
      ],
      "name": "wagyuUnavailability",
      "outputs": [],
      "stateMutability": "nonpayable",
      "type": "function"
    },
    {
      "inputs": [
        {
          "internalType": "string",
          "name": "wagyuID",
          "type": "string"
        },
        {
          "internalType": "address payable",
          "name": "_to",
          "type": "address"
        },
        {
          "internalType": "uint256",
          "name": "_value",
          "type": "uint256"
        }
      ],
      "name": "requestBuy",
      "outputs": [],
      "stateMutability": "payable",
      "type": "function"
    }
  ],
  "bytecode": "0x608060405234801561001057600080fd5b50610e1f806100206000396000f3fe60806040526004361061004a5760003560e01c806327e235e31461004f57806354d72f621461008c5780638a7df0aa146100b55780638da5cb5b146100d1578063ec1a4499146100fc575b600080fd5b34801561005b57600080fd5b5061007660048036038101906100719190610720565b61013e565b6040516100839190610766565b60405180910390f35b34801561009857600080fd5b506100b360048036038101906100ae91906108c7565b610156565b005b6100cf60048036038101906100ca919061097a565b610193565b005b3480156100dd57600080fd5b506100e6610383565b6040516100f391906109f8565b60405180910390f35b34801561010857600080fd5b50610123600480360381019061011e91906108c7565b6103a7565b60405161013596959493929190610aad565b60405180910390f35b60016020528060005260406000206000915090505481565b60006002826040516101689190610b6d565b908152602001604051809103902060050160006101000a81548160ff02191690831515021790555050565b826002816040516101a49190610b6d565b908152602001604051809103902060050160009054906101000a900460ff1615610203576040517f08c379a00000000000000000000000000000000000000000000000000000000081526004016101fa90610bd0565b60405180910390fd5b81341115610246576040517f08c379a000000000000000000000000000000000000000000000000000000000815260040161023d90610c3c565b60405180910390fd5b8273ffffffffffffffffffffffffffffffffffffffff166108fc839081150290604051600060405180830381858888f1935050505015801561028c573d6000803e3d6000fd5b5081600160003373ffffffffffffffffffffffffffffffffffffffff1673ffffffffffffffffffffffffffffffffffffffff16815260200190815260200160002060008282546102dc9190610c8b565b9250508190555081600160008573ffffffffffffffffffffffffffffffffffffffff1673ffffffffffffffffffffffffffffffffffffffff16815260200190815260200160002060008282546103329190610cbf565b925050819055507f5db1aca79787bd9ebee1049fe0ca1f21ed49448b2b68ee7af279648b10b57fb333848460405161036c93929190610d52565b60405180910390a161037d84610156565b50505050565b60008054906101000a900473ffffffffffffffffffffffffffffffffffffffff1681565b6002818051602081018201805184825260208301602085012081835280955050505050506000915090508060000180546103e090610db8565b80601f016020809104026020016040519081016040528092919081815260200182805461040c90610db8565b80156104595780601f1061042e57610100808354040283529160200191610459565b820191906000526020600020905b81548152906001019060200180831161043c57829003601f168201915b50505050509080600101805461046e90610db8565b80601f016020809104026020016040519081016040528092919081815260200182805461049a90610db8565b80156104e75780601f106104bc576101008083540402835291602001916104e7565b820191906000526020600020905b8154815290600101906020018083116104ca57829003601f168201915b5050505050908060020180546104fc90610db8565b80601f016020809104026020016040519081016040528092919081815260200182805461052890610db8565b80156105755780601f1061054a57610100808354040283529160200191610575565b820191906000526020600020905b81548152906001019060200180831161055857829003601f168201915b50505050509080600301805461058a90610db8565b80601f01602080910402602001604051908101604052809291908181526020018280546105b690610db8565b80156106035780601f106105d857610100808354040283529160200191610603565b820191906000526020600020905b8154815290600101906020018083116105e657829003601f168201915b50505050509080600401805461061890610db8565b80601f016020809104026020016040519081016040528092919081815260200182805461064490610db8565b80156106915780601f1061066657610100808354040283529160200191610691565b820191906000526020600020905b81548152906001019060200180831161067457829003601f168201915b5050505050908060050160009054906101000a900460ff16905086565b6000604051905090565b600080fd5b600080fd5b600073ffffffffffffffffffffffffffffffffffffffff82169050919050565b60006106ed826106c2565b9050919050565b6106fd816106e2565b811461070857600080fd5b50565b60008135905061071a816106f4565b92915050565b600060208284031215610736576107356106b8565b5b60006107448482850161070b565b91505092915050565b6000819050919050565b6107608161074d565b82525050565b600060208201905061077b6000830184610757565b92915050565b600080fd5b600080fd5b6000601f19601f8301169050919050565b7f4e487b7100000000000000000000000000000000000000000000000000000000600052604160045260246000fd5b6107d48261078b565b810181811067ffffffffffffffff821117156107f3576107f261079c565b5b80604052505050565b60006108066106ae565b905061081282826107cb565b919050565b600067ffffffffffffffff8211156108325761083161079c565b5b61083b8261078b565b9050602081019050919050565b82818337600083830152505050565b600061086a61086584610817565b6107fc565b90508281526020810184848401111561088657610885610786565b5b610891848285610848565b509392505050565b600082601f8301126108ae576108ad610781565b5b81356108be848260208601610857565b91505092915050565b6000602082840312156108dd576108dc6106b8565b5b600082013567ffffffffffffffff8111156108fb576108fa6106bd565b5b61090784828501610899565b91505092915050565b600061091b826106c2565b9050919050565b61092b81610910565b811461093657600080fd5b50565b60008135905061094881610922565b92915050565b6109578161074d565b811461096257600080fd5b50565b6000813590506109748161094e565b92915050565b600080600060608486031215610993576109926106b8565b5b600084013567ffffffffffffffff8111156109b1576109b06106bd565b5b6109bd86828701610899565b93505060206109ce86828701610939565b92505060406109df86828701610965565b9150509250925092565b6109f2816106e2565b82525050565b6000602082019050610a0d60008301846109e9565b92915050565b600081519050919050565b600082825260208201905092915050565b60005b83811015610a4d578082015181840152602081019050610a32565b60008484015250505050565b6000610a6482610a13565b610a6e8185610a1e565b9350610a7e818560208601610a2f565b610a878161078b565b840191505092915050565b60008115159050919050565b610aa781610a92565b82525050565b600060c0820190508181036000830152610ac78189610a59565b90508181036020830152610adb8188610a59565b90508181036040830152610aef8187610a59565b90508181036060830152610b038186610a59565b90508181036080830152610b178185610a59565b9050610b2660a0830184610a9e565b979650505050505050565b600081905092915050565b6000610b4782610a13565b610b518185610b31565b9350610b61818560208601610a2f565b80840191505092915050565b6000610b798284610b3c565b915081905092915050565b7f546865206d65617420686173206265656e20626f756768740000000000000000600082015250565b6000610bba601883610a1e565b9150610bc582610b84565b602082019050919050565b60006020820190508181036000830152610be981610bad565b9050919050565b7f496e73756666696369656e742062616c616e6365000000000000000000000000600082015250565b6000610c26601483610a1e565b9150610c3182610bf0565b602082019050919050565b60006020820190508181036000830152610c5581610c19565b9050919050565b7f4e487b7100000000000000000000000000000000000000000000000000000000600052601160045260246000fd5b6000610c968261074d565b9150610ca18361074d565b9250828203905081811115610cb957610cb8610c5c565b5b92915050565b6000610cca8261074d565b9150610cd58361074d565b9250828201905080821115610ced57610cec610c5c565b5b92915050565b6000819050919050565b6000610d18610d13610d0e846106c2565b610cf3565b6106c2565b9050919050565b6000610d2a82610cfd565b9050919050565b6000610d3c82610d1f565b9050919050565b610d4c81610d31565b82525050565b6000606082019050610d6760008301866109e9565b610d746020830185610d43565b610d816040830184610757565b949350505050565b7f4e487b7100000000000000000000000000000000000000000000000000000000600052602260045260246000fd5b60006002820490506001821680610dd057607f821691505b602082108103610de357610de2610d89565b5b5091905056fea26469706673582212201fbf363ddcaccdcf0a8b0af8f5d10259b8e7f69f3da97991ab553abe8d172afb64736f6c63430008110033",
  "immutableReferences": {},
  "source": "// SPDX-License-Identifier: MIT\r\npragma solidity >=0.4.22 <0.9.0;\r\n\r\nimport \"./Wagyu.sol\";\r\n\r\ncontract WagyuTransaction{\r\n\r\n  // Mapping of addresses to balance\r\n  address public owner;\r\n  mapping(address => uint256) public balances;\r\n  mapping(string => Manufacturer) public manufacturer;\r\n\r\n  // Check either the Wagyu meat has been buy or not\r\n  modifier isBought(string memory wagyuID) {\r\n    require (!manufacturer[wagyuID].availability, \"The meat has been bought\");\r\n    _;\r\n  }\r\n\r\n  // Event to be emitted when a transaction is made\r\n  event WagyuBought(address from, address to, uint256 value);\r\n\r\n  //Function to change the availability of Wagyu meat\r\n  function wagyuUnavailability (string memory wagyuID) public{\r\n    manufacturer[wagyuID].availability = false;\r\n  }\r\n\r\n  // Function to make a transaction from one address to another\r\n  function requestBuy(string memory wagyuID, address payable _to, uint _value) public payable isBought(wagyuID){\r\n\r\n    // Check that the sender has enough balance to make the transaction\r\n    require(msg.value <= _value, \"Insufficient balance\");\r\n    \r\n    // Transfer the Ether from the sender to the recipient\r\n    _to.transfer(_value);\r\n\r\n    // Update the balances of the sender and recipient\r\n    balances[msg.sender] -= _value;\r\n    balances[_to] += _value;\r\n\r\n    // Emit a WagyuBought event\r\n    emit WagyuBought(msg.sender, _to, _value);\r\n    wagyuUnavailability(wagyuID);\r\n  }\r\n}",
  "sourcePath": "D:\\Degree\\4th Year 1st Sem\\Blockchain\\Project\\Group Project\\wagyu-online-store\\truffle\\contracts\\Transaction.sol",
  "compiler": {
    "name": "solc",
    "version": "0.8.17+commit.8df45f5f.Emscripten.clang"
  },
  "schemaVersion": "3.4.11",
  "updatedAt": "2023-01-24T16:31:58.061Z",
  "devdoc": {
    "kind": "dev",
    "methods": {},
    "version": 1
  },
  "userdoc": {
    "kind": "user",
    "methods": {},
    "version": 1
  }
}